{
  "contractName": "PiggyBank1",
  "abi": [
    {
      "inputs": [
        {
          "internalType": "address payable",
          "name": "_owner",
          "type": "address"
        }
      ],
      "payable": false,
      "stateMutability": "nonpayable",
      "type": "constructor"
    },
    {
      "constant": true,
      "inputs": [],
      "name": "balance",
      "outputs": [
        {
          "internalType": "uint256",
          "name": "",
          "type": "uint256"
        }
      ],
      "payable": false,
      "stateMutability": "view",
      "type": "function"
    },
    {
      "constant": true,
      "inputs": [],
      "name": "owner",
      "outputs": [
        {
          "internalType": "address payable",
          "name": "",
          "type": "address"
        }
      ],
      "payable": false,
      "stateMutability": "view",
      "type": "function"
    },
    {
      "constant": true,
      "inputs": [],
      "name": "state",
      "outputs": [
        {
          "internalType": "enum PiggyBank1.PiggyBankState",
          "name": "",
          "type": "uint8"
        }
      ],
      "payable": false,
      "stateMutability": "view",
      "type": "function"
    },
    {
      "constant": true,
      "inputs": [],
      "name": "timeOfFirstDeposit",
      "outputs": [
        {
          "internalType": "uint256",
          "name": "",
          "type": "uint256"
        }
      ],
      "payable": false,
      "stateMutability": "view",
      "type": "function"
    },
    {
      "constant": false,
      "inputs": [],
      "name": "addMoney",
      "outputs": [],
      "payable": true,
      "stateMutability": "payable",
      "type": "function"
    },
    {
      "constant": false,
      "inputs": [],
      "name": "breakPiggyBank",
      "outputs": [],
      "payable": false,
      "stateMutability": "nonpayable",
      "type": "function"
    }
  ],
  "bytecode": "0x608060405234801561001057600080fd5b506040516104c03803806104c08339818101604052602081101561003357600080fd5b8101908080519060200190929190505050806000806101000a81548173ffffffffffffffffffffffffffffffffffffffff021916908373ffffffffffffffffffffffffffffffffffffffff16021790555060008060146101000a81548160ff021916908360028111156100a257fe5b0217905550600060028190555050610401806100bf6000396000f3fe6080604052600436106100555760003560e01c80631b3f48421461005a5780633ba878d41461006457806340d6a4fe1461007b5780638da5cb5b146100a6578063b69ef8a8146100fd578063c19d93fb14610128575b600080fd5b610062610161565b005b34801561007057600080fd5b50610079610258565b005b34801561008757600080fd5b50610090610388565b6040518082815260200191505060405180910390f35b3480156100b257600080fd5b506100bb61038e565b604051808273ffffffffffffffffffffffffffffffffffffffff1673ffffffffffffffffffffffffffffffffffffffff16815260200191505060405180910390f35b34801561010957600080fd5b506101126103b3565b6040518082815260200191505060405180910390f35b34801561013457600080fd5b5061013d6103b9565b6040518082600281111561014d57fe5b60ff16815260200191505060405180910390f35b6000809054906101000a900473ffffffffffffffffffffffffffffffffffffffff1673ffffffffffffffffffffffffffffffffffffffff163373ffffffffffffffffffffffffffffffffffffffff16146101ba57600080fd5b6002808111156101c657fe5b600060149054906101000a900460ff1660028111156101e157fe5b14156101ec57600080fd5b346002600082825401925050819055506000600281111561020957fe5b600060149054906101000a900460ff16600281111561022457fe5b1415610256576001600060146101000a81548160ff0219169083600281111561024957fe5b0217905550426001819055505b565b6000809054906101000a900473ffffffffffffffffffffffffffffffffffffffff1673ffffffffffffffffffffffffffffffffffffffff163373ffffffffffffffffffffffffffffffffffffffff16146102b157600080fd5b600160028111156102be57fe5b600060149054906101000a900460ff1660028111156102d957fe5b146102e357600080fd5b6301e13380600154014210156102f857600080fd5b6002600060146101000a81548160ff0219169083600281111561031757fe5b02179055506000809054906101000a900473ffffffffffffffffffffffffffffffffffffffff1673ffffffffffffffffffffffffffffffffffffffff166108fc6002549081150290604051600060405180830381858888f19350505050158015610385573d6000803e3d6000fd5b50565b60015481565b6000809054906101000a900473ffffffffffffffffffffffffffffffffffffffff1681565b60025481565b600060149054906101000a900460ff168156fea265627a7a723158201f8d33a516c555e9673eb2d6b6f71834b5fc666eacaa2706983b54d32d1832d964736f6c63430005100032",
  "source": "// SPDX-License-Identifier: MIT\npragma solidity >=0.4.22 <0.9.0;\n\ncontract PiggyBank1 {\n    enum PiggyBankState { Unused, InUse, Broken }\n\n    address payable public owner;\n    PiggyBankState public state;\n    uint public timeOfFirstDeposit;\n    uint public balance;\n\n    constructor (address payable _owner) public {\n        owner = _owner;\n        state = PiggyBankState.Unused;\n        balance = 0;\n    }\n\n    modifier byOwner {\n        require (msg.sender == owner);\n        _;\n    }\n\n    modifier notBroken {\n        require (state != PiggyBankState.Broken);\n        _;\n    }\n\n    modifier inUse {\n        require (state == PiggyBankState.InUse);\n        _;\n    }\n\n    function addMoney() byOwner notBroken public payable {\n        balance += msg.value;\n        if (state == PiggyBankState.Unused) {\n            state = PiggyBankState.InUse;\n            timeOfFirstDeposit = now;\n        }\n    }\n\n    function breakPiggyBank() byOwner inUse public {\n        require (now >= timeOfFirstDeposit + 365 days);\n\n        state = PiggyBankState.Broken;\n        owner.transfer(balance);\n    }\n\n}",
  "sourcePath": "/Users/waqasa/Desktop/University of Malta/5402_5ECTS Verification Techniques for Smart Contracts/dlt_verification_techniques/testing/PiggyBank/contracts/PiggyBank.sol",
  "compiler": {
    "name": "solc",
    "version": "0.5.16+commit.9c3226ce.Emscripten.clang"
  },
  "schemaVersion": "3.4.1",
  "updatedAt": "2021-06-17T18:21:02.168Z",
  "networkType": "ethereum",
  "devdoc": {
    "methods": {}
  },
  "userdoc": {
    "methods": {}
  }
}