{
  "contractName": "Escrow2",
  "abi": [
    {
      "inputs": [
        {
          "internalType": "address",
          "name": "_sender",
          "type": "address"
        },
        {
          "internalType": "address payable",
          "name": "_receiver",
          "type": "address"
        },
        {
          "internalType": "uint256",
          "name": "_delayUntilRelease",
          "type": "uint256"
        }
      ],
      "payable": false,
      "stateMutability": "nonpayable",
      "type": "constructor"
    },
    {
      "constant": true,
      "inputs": [],
      "name": "amountInEscrow",
      "outputs": [
        {
          "internalType": "uint256",
          "name": "",
          "type": "uint256"
        }
      ],
      "payable": false,
      "stateMutability": "view",
      "type": "function"
    },
    {
      "constant": true,
      "inputs": [],
      "name": "delayUntilRelease",
      "outputs": [
        {
          "internalType": "uint256",
          "name": "",
          "type": "uint256"
        }
      ],
      "payable": false,
      "stateMutability": "view",
      "type": "function"
    },
    {
      "constant": true,
      "inputs": [],
      "name": "receiver",
      "outputs": [
        {
          "internalType": "address payable",
          "name": "",
          "type": "address"
        }
      ],
      "payable": false,
      "stateMutability": "view",
      "type": "function"
    },
    {
      "constant": true,
      "inputs": [],
      "name": "releaseTime",
      "outputs": [
        {
          "internalType": "uint256",
          "name": "",
          "type": "uint256"
        }
      ],
      "payable": false,
      "stateMutability": "view",
      "type": "function"
    },
    {
      "constant": true,
      "inputs": [],
      "name": "releasedByReceiver",
      "outputs": [
        {
          "internalType": "bool",
          "name": "",
          "type": "bool"
        }
      ],
      "payable": false,
      "stateMutability": "view",
      "type": "function"
    },
    {
      "constant": true,
      "inputs": [],
      "name": "releasedBySender",
      "outputs": [
        {
          "internalType": "bool",
          "name": "",
          "type": "bool"
        }
      ],
      "payable": false,
      "stateMutability": "view",
      "type": "function"
    },
    {
      "constant": true,
      "inputs": [],
      "name": "sender",
      "outputs": [
        {
          "internalType": "address",
          "name": "",
          "type": "address"
        }
      ],
      "payable": false,
      "stateMutability": "view",
      "type": "function"
    },
    {
      "constant": true,
      "inputs": [],
      "name": "state",
      "outputs": [
        {
          "internalType": "enum Escrow2.State",
          "name": "",
          "type": "uint8"
        }
      ],
      "payable": false,
      "stateMutability": "view",
      "type": "function"
    },
    {
      "constant": false,
      "inputs": [],
      "name": "placeInEscrow",
      "outputs": [],
      "payable": true,
      "stateMutability": "payable",
      "type": "function"
    },
    {
      "constant": false,
      "inputs": [],
      "name": "releaseEscrow",
      "outputs": [],
      "payable": false,
      "stateMutability": "nonpayable",
      "type": "function"
    },
    {
      "constant": false,
      "inputs": [],
      "name": "withdrawFromEscrow",
      "outputs": [],
      "payable": false,
      "stateMutability": "nonpayable",
      "type": "function"
    }
  ],
  "bytecode": "0x608060405234801561001057600080fd5b5060405161080c38038061080c8339818101604052606081101561003357600080fd5b81019080805190602001909291908051906020019092919080519060200190929190505050826000806101000a81548173ffffffffffffffffffffffffffffffffffffffff021916908373ffffffffffffffffffffffffffffffffffffffff16021790555081600160006101000a81548173ffffffffffffffffffffffffffffffffffffffff021916908373ffffffffffffffffffffffffffffffffffffffff160217905550806002819055506000600560006101000a81548160ff0219169083151502179055506000600560016101000a81548160ff0219169083151502179055506000600560026101000a81548160ff0219169083600281111561013557fe5b02179055505050506106c08061014c6000396000f3fe60806040526004361061009c5760003560e01c8063b91d400111610064578063b91d400114610180578063bde1f459146101ab578063c19d93fb146101da578063d1e3d1c514610213578063d952d1541461021d578063f7260d3e146102485761009c565b80632216a694146100a157806347f273ac146100d057806367e404ce146100fb578063757a554314610152578063b725d67214610169575b600080fd5b3480156100ad57600080fd5b506100b661029f565b604051808215151515815260200191505060405180910390f35b3480156100dc57600080fd5b506100e56102b2565b6040518082815260200191505060405180910390f35b34801561010757600080fd5b506101106102b8565b604051808273ffffffffffffffffffffffffffffffffffffffff1673ffffffffffffffffffffffffffffffffffffffff16815260200191505060405180910390f35b34801561015e57600080fd5b506101676102dd565b005b34801561017557600080fd5b5061017e6103f6565b005b34801561018c57600080fd5b5061019561055f565b6040518082815260200191505060405180910390f35b3480156101b757600080fd5b506101c0610565565b604051808215151515815260200191505060405180910390f35b3480156101e657600080fd5b506101ef610578565b604051808260028111156101ff57fe5b60ff16815260200191505060405180910390f35b61021b61058b565b005b34801561022957600080fd5b5061023261065f565b6040518082815260200191505060405180910390f35b34801561025457600080fd5b5061025d610665565b604051808273ffffffffffffffffffffffffffffffffffffffff1673ffffffffffffffffffffffffffffffffffffffff16815260200191505060405180910390f35b600560009054906101000a900460ff1681565b60025481565b6000809054906101000a900473ffffffffffffffffffffffffffffffffffffffff1681565b60018060028111156102eb57fe5b600560029054906101000a900460ff16600281111561030657fe5b1461031057600080fd5b6000809054906101000a900473ffffffffffffffffffffffffffffffffffffffff1673ffffffffffffffffffffffffffffffffffffffff163373ffffffffffffffffffffffffffffffffffffffff161415610381576001600560006101000a81548160ff0219169083151502179055505b600160009054906101000a900473ffffffffffffffffffffffffffffffffffffffff1673ffffffffffffffffffffffffffffffffffffffff163373ffffffffffffffffffffffffffffffffffffffff1614156103f3576001600560016101000a81548160ff0219169083151502179055505b50565b600160009054906101000a900473ffffffffffffffffffffffffffffffffffffffff168073ffffffffffffffffffffffffffffffffffffffff163373ffffffffffffffffffffffffffffffffffffffff161461045157600080fd5b600180600281111561045f57fe5b600560029054906101000a900460ff16600281111561047a57fe5b1461048457600080fd5b60035442101561049357600080fd5b600560019054906101000a900460ff1680156104bb5750600560009054906101000a900460ff165b6104c457600080fd5b6002600560026101000a81548160ff021916908360028111156104e357fe5b0217905550600160009054906101000a900473ffffffffffffffffffffffffffffffffffffffff1673ffffffffffffffffffffffffffffffffffffffff166108fc6004549081150290604051600060405180830381858888f19350505050158015610552573d6000803e3d6000fd5b5060006004819055505050565b60035481565b600560019054906101000a900460ff1681565b600560029054906101000a900460ff1681565b6000809054906101000a900473ffffffffffffffffffffffffffffffffffffffff168073ffffffffffffffffffffffffffffffffffffffff163373ffffffffffffffffffffffffffffffffffffffff16146105e557600080fd5b60008060028111156105f357fe5b600560029054906101000a900460ff16600281111561060e57fe5b1461061857600080fd5b6000341161062557600080fd5b3460048190555060025442016003819055506001600560026101000a81548160ff0219169083600281111561065657fe5b02179055505050565b60045481565b600160009054906101000a900473ffffffffffffffffffffffffffffffffffffffff168156fea265627a7a723158207cca6c8fb5b784c8e55a9e666a424c08c2aac60b0081c01e010ef5c65a9d15f164736f6c63430005100032",
  "source": "pragma solidity >=0.5.5;\n\n/* Simple one shot, time locked and conditional on two-party release escrow smart contract */\n\ncontract Escrow2 {\n\n    enum State {AwaitingDeposit, DepositPlaced, Withdrawn}\n\n    address public sender;\n    address payable public receiver;\n\n    uint public delayUntilRelease;\n    uint public releaseTime;\n\n    uint public amountInEscrow;\n    bool public releasedBySender;\n    bool public releasedByReceiver;\n\n    State public state;\n\n    modifier by(address _address) {\n        require(msg.sender == _address);\n        _;\n    }\n\n    modifier stateIs(State _state) {\n        require(state == _state);\n        _;\n    }\n\n    constructor (address _sender, address payable _receiver, uint _delayUntilRelease) public {\n        // Set parameters of escrow contract\n        sender = _sender;\n        receiver = _receiver;\n        delayUntilRelease = _delayUntilRelease;\n\n        releasedBySender = false;\n        releasedByReceiver = false;\n\n        // Set contract state\n        state = State.AwaitingDeposit;\n    }\n\n    function placeInEscrow() public by(sender) stateIs(State.AwaitingDeposit) payable {\n        require (msg.value > 0);\n\n        // Update parameters of escrow contract\n        amountInEscrow = msg.value;\n        releaseTime = now + delayUntilRelease;\n\n        // Set contract state\n        state = State.DepositPlaced;\n    }\n\n    function releaseEscrow() public stateIs(State.DepositPlaced) {\n        if (msg.sender == sender)   { releasedBySender   = true; }\n        if (msg.sender == receiver) { releasedByReceiver = true; }\n    }\n\n    function withdrawFromEscrow() public by(receiver) stateIs(State.DepositPlaced) {\n        require (now >= releaseTime);\n        require (releasedByReceiver && releasedBySender);\n\n        // Set contract state\n        state = State.Withdrawn;\n\n        // Send money\n        receiver.transfer(amountInEscrow);\n\n        // Set internal parameters of smart contract\n        amountInEscrow = 0;\n\n    }\n}\n",
  "sourcePath": "/Users/waqasa/Desktop/University of Malta/5402_5ECTS Verification Techniques for Smart Contracts/dlt_verification_techniques/testing/Escrow/contracts/Escrow.sol",
  "compiler": {
    "name": "solc",
    "version": "0.5.16+commit.9c3226ce.Emscripten.clang"
  },
  "schemaVersion": "3.4.1",
  "updatedAt": "2021-06-16T08:11:24.766Z",
  "networkType": "ethereum",
  "devdoc": {
    "methods": {}
  },
  "userdoc": {
    "methods": {}
  }
}